:1000000019C033C032C08AC07FC074C02EC02DC09A
:100010002CC02BC02AC029C028C027C026C025C09C
:1000200024C0BFC022C021C0E4C3A4C41EC01DC0E0
:100030001CC01BC011241FBECFEFCDBFDFE3DEBF4E
:100040001FE3A0E0BFE3E0E4FAE002C005900D92F8
:10005000A432B107D9F72FE3A4E2BFE301C01D9298
:10006000A335B207E1F734D0E9C4CACF37C1682F4E
:100070008BE62FC4462F682F8BE6F2D391E08111D7
:1000800090E0892F089565E180E0F4DF81E0EFDF03
:10009000827F682F676381E0EDDF82E0E8DF807CAC
:1000A000682F686282E0E6DF60E183E0E3DF68E01A
:1000B00084E0E0DF85E0DBDF682F616085E0DACF98
:1000C00068E08BE606D488718695869586950895B6
:1000D000CDDFD9DF78942CD085E050D085E04ED0AC
:1000E00085E04CD0EDDF87EA91E60197F1F700C09B
:1000F0000000F2CF1F920F920FB60F9211240F90B3
:100100000FBE0F901F9018951F920F920FB60F926F
:1001100011240F900FBE0F901F9018951F920F92F1
:100120000FB60F9211240F900FBE0F901F901895CD
:1001300081E08093243F8BEA90E017D461E085E270
:100140009FE368C48091253F882321F01092253FCA
:100150001092243F08958091243F811101C0E8CF7F
:10016000F1CFE0E0F6E080E4828381E08287808363
:1001700080E0089580910B068170089580930606B3
:1001800081E080930806F6DF8823E9F320911006CA
:100190003091110690910B06916090930B06C90166
:1001A00008951F920F920FB60F9211242F933F9331
:1001B0004F935F936F937F938F939F93AF93BF936F
:1001C000EF93FF9380910B06816080930B06E09183
:1001D000263FF091273F309709F00995FF91EF9165
:1001E000BF91AF919F918F917F916F915F914F914F
:1001F0003F912F910F900FBE0F901F90189580E0A8
:10020000089541E068ED8CE790E099D347E068ED10
:1002100081E690E094D380E0089580E00895E0E1E5
:10022000F4E0808188608193E83184E0F807C9F7C1
:10023000E0E3F4E0808188608193E83384E0F807AC
:10024000C9F7E0E5F4E0808188608193E83584E0D7
:10025000F807C9F70895E5E1F4E08081887F8460BC
:1002600080838081877F8083E7E1F4E08081887FDD
:10027000846080838081877F808373CF0A98029A0D
:100280000198E1E1F4E08081877F80830398E3E1D6
:10029000F4E08081877F80830498E4E1F4E080814A
:1002A000877F808355C32898209AE0E3F4E080811B
:1002B000877F808380818F7780838081887F808320
:1002C0002998219AE1E3F4E08081877F808380810F
:1002D0008F7780838081887F8083E0C1A0DF2C9A24
:1002E000249A2D982598E5E3F4E08081877F808328
:1002F00080818F7780838081887F8560808340982C
:10030000E0E5F4E08081877F80834998419A4A98AC
:100310004298E2E5F4E08081877F808380818F7757
:1003200080838081887F826080834398E3E5F4E066
:100330008081877F808365DF79D38DDF9FDF6DDFED
:1003400002D3B1DF5CCFE0E1F8E084818860848390
:10035000858181608583E8E2FFE380818E7F8083F1
:1003600013868EE00895E8E2FFE380818E7F80832C
:10037000138680E00895E0E1F8E08481836084835F
:10038000E8E2FFE380818E7F8083138680E008951A
:10039000E8E2FFE38081886080838181880F81604B
:1003A0008093170884E00895F3CFE8E2FFE38081AB
:1003B000886080838181880F8093170883E0089587
:1003C000F4CF8091283F877F8093283F82E08093FD
:1003D000333FE091383FF091393F8091443F909115
:1003E000453F0995823019F0833011F4DECFD0CF2C
:1003F000C2CFE0E1F8E084818B7F848384E00895BC
:10040000E0E1F8E084818B7F848383E00895E0E17C
:10041000F8E0848184608483848183608483E8E25B
:10042000FFE380818E7F8083138680E00895E0E182
:10043000F8E084818460848388E0089580911508C1
:1004400088608093150882E08093333FE091363FC7
:10045000F091373F8091423F9091433F0995823020
:1004600019F0833011F4A1CF93CF6DCFE0E1F8E024
:10047000848188608483858181608583E8E2FFE3ED
:1004800080818E7F808382E083878EE008958091D3
:100490001508806C809315088091283F83FF07C062
:1004A0008091150884FF03C08FE08093323F8091D4
:1004B000150883FF03C080E18093323F80911508C7
:1004C00082FF03C081E18093323FE091323FF0E050
:1004D000EE0FFF1FE050F14C0190F081E02D0995E7
:1004E0008093323F089581E0089585E0089590E07B
:1004F000FC01EE0FFF1FEC5CF04C6115710551F033
:1005000060837183880F991FFC01E05CF04C40838D
:100510005183089523E732E020833183880F991FA8
:10052000FC01E05CF04C1082118208958091150866
:1005300084FF10C0E0913A3FF0913B3F8091463FED
:100540009091473F0995823019F0833011F42DCFF7
:100550001FCF11CF8091283F877F8093283FE09164
:100560002A3FF0912B3FCF01019680932A3F909331
:100570002B3F80818093180880912C3F90912D3FD4
:10058000019780932C3F90932D3F892B11F485E0A8
:10059000089583E008958091283F877F8093283FC6
:1005A00080912C3F90912D3F20911408813091052E
:1005B00011F4246001C02B7F2093140801978093CD
:1005C0002C3F90932D3FE0912A3FF0912B3F892BB8
:1005D000F9F480911808808380912A3F90912B3FF5
:1005E000019680932A3F90932B3F8091283F84600F
:1005F0008093283FE091343FF091353F8091403F18
:100600009091413F09958250823008F410CFFFCE7F
:1006100080911808808380912A3F90912B3F01960A
:1006200080932A3F90932B3F80911408826080939F
:10063000140884E008958091150884FF0EC0E091AD
:100640003A3FF0913B3F8091463F9091473F09955B
:100650008230B9F08330B1F017C08091283F8460B8
:100660008093283FE091343FF091353F8091403FA7
:100670009091413F0995833029F0843021F08230F8
:1006800019F486CE92CE52CF76CE82CEAB01BC018B
:1006900080E02DCFAB01BC0182E029CFE0E1F8E0A2
:1006A000168281EC838308959091283F91FD53C079
:1006B0008093293F892F847F9EE09093323F24EFDF
:1006C00031E02093303F3093313F826084608093EB
:1006D000283F83E792E08093343F9093353F109218
:1006E000403F1092413F8093363F9093373F1092A6
:1006F000423F1092433F8093383F9093393F10928E
:10070000443F1092453F80933A3F90933B3F109275
:10071000463F1092473F85E792E080933C3F90939D
:100720003D3F1092483F1092493F809114088860E5
:10073000809314088091150881608093150880913A
:100740001508806C8093150880911308806C809345
:10075000130880E0089581E008958091150882FFD4
:1007600008C08091283F8E7F8093283F82E080934D
:10077000333F8091283F80FD13C08D7F8093283FB9
:100780008FEF8093293F80911508806C8093150826
:10079000809113088F73809313088091333F0895DD
:1007A00081E008959C019091283F92FF0CC0209316
:1007B0002A3F30932B3F60932C3F70932D3F892F1E
:1007C0008B7F8093283F08959091283F90FD0DC026
:1007D00091609093283F882311F081E001C082E06E
:1007E0008093323F54DE80E0089581E0089580E0F8
:1007F000EBCF1F920F920FB60F9211242F933F93BE
:100800004F935F936F937F938F939F93AF93BF9318
:10081000EF93FF933CDEFF91EF91BF91AF919F91DA
:100820008F917F916F915F914F913F912F910F9099
:100830000FBE0F901F90189561E070E0B3DF60E08D
:1008400070E080E090E022DF84E0089561E070E0F5
:10085000A9DF60E070E080E090E018DF82E00895BA
:10086000FF920F931F93CF93DF9300D0CDB7DEB7E6
:10087000F82E69834A8300E117E28F2D15DF81305E
:1008800021F401501109C9F71CC0BE016E5F7F4FF2
:100890008CE194E0FBDE61E070E0CE01019682DF46
:1008A00060E070E08DE994E0F5DEA1DF00E117E2A1
:1008B00054DF813029F401501109D1F782E001C0E1
:1008C00080E00F900F90DF91CF911F910F91FF90DB
:1008D0000895FF920F931F93CF93DF9300D0CDB76E
:1008E000DEB7F82E6A838AE2898302E010E08F2D5A
:1008F000DBDE8823E1F3BE016F5F7F4F86E294E089
:10090000C5DE61E070E0CE0102964CDF60E070E091
:100910008DE994E0BFDE6BDF20DF8130E9F38823CF
:1009200019F00150110919F789810F900F90DF918B
:10093000CF911F910F91FF90089583E00895FC01DE
:1009400064BF4083089582E08093500080E0089562
:10095000E0E2F8E081E0808393E091838283ECE43D
:10096000FFE310821582168208958093513F909381
:10097000523F08951F920F920FB60F9211242F939A
:100980003F934F935F936F937F938F939F93AF9317
:10099000BF93EF93FF939091240880E880932308FE
:1009A0008091503FE0914D3FF0914E3F823009F0F1
:1009B00090839F012F5F3F4F20934D3F30934E3FD9
:1009C000813011F0918101C090E080914F3F8150C2
:1009D00080934F3F882319F0909324080AC083E046
:1009E00080934C3FE091513FF091523F309709F096
:1009F0000995FF91EF91BF91AF919F918F917F9159
:100A00006F915F914F913F912F910F900FBE0F907B
:100A10001F901895ECE4FFE381839283638381E068
:100A2000848382E0808310922408089580E3809379
:100A3000A00082E08093A10080E00895F894FFCFA9
:100A4000B301C801D5019602CB021B034503E001A7
:100A5000D401BB01F901000207021702A301E10161
:040A60001E0236023A
:00000001FF
